:1000000030C0000049C0000047C00000C8C2000066
:1000100043C0000041C000003FC000003DC00000E0
:100020003BC0000039C0000037C000008EC6000091
:1000300033C0000031C000002FC000002DC0000000
:100040002BC0000029C0000027C0000025C0000010
:1000500023C0000005060D0615061D0625062D0603
:10006000350611241FBECFE5D8E0DEBFCDBF10E0BE
:10007000A0E6B0E0E8E4FFE002C005900D92AC37E6
:10008000B107D9F720E0ACE7B0E001C01D92A83974
:10009000B207E1F702D256C7B3CFCF937BD6C82FB2
:1000A0009ED181E0C11101C080E0CF910895CF932E
:1000B000DF9300D0CDB7DEB796D61A821982CE0173
:1000C0000196B2D689819A818832910520F064E147
:1000D00082E095D10FC09C012551310923313105B2
:1000E00020F464E183E08BD105C0449718F464E107
:1000F00081E085D180E00F900F90DF91CF9108953E
:10010000FC01892B09F451C080818130C1F028F0B5
:10011000823039F18330B9F14AC082818F3F31F4A6
:100120009AB38181892B8ABB80E00895811141C0F7
:100130009AB38181809589238ABB80E0089582816A
:100140008F3F31F497B38181892B87BB80E008957D
:10015000811131C097B381818095892387BB80E06D
:10016000089582818F3F31F494B38181892B84BBC0
:1001700080E00895811121C094B381818095892305
:1001800084BB80E0089582818F3F31F491B38181F7
:10019000892B81BB80E00895811111C091B38181C9
:1001A0008095892381BB80E0089581E0089581E0F6
:1001B000089581E0089581E0089581E0089581E047
:1001C00008958130A9F028F0823009F1833071F16F
:1001D0003CC04F3F29F48BB3682B6BBB80E0089584
:1001E000411135C08BB3609568236BBB80E00895E7
:1001F0004F3F29F488B3682B68BB80E00895411114
:1002000028C088B36095682368BB80E008954F3F9D
:1002100029F485B3682B65BB80E0089541111BC0AC
:1002200085B36095682365BB80E008954F3F29F44E
:1002300082B3682B62BB80E0089541110EC082B387
:100240006095682362BB80E0089581E0089581E0B5
:10025000089581E0089581E0089581E008951F9355
:10026000CF93DF9300D000D01F92CDB7DEB7182F09
:1002700083E089838FEF8A838B8381E08C8386E0A0
:100280008D83CE010496CDD182E08C83CE0104967D
:10029000C8D1113019F0123031F00AC0CE010196E8
:1002A0002FDF80E006C0CE0101962ADF80E001C08A
:1002B00081E00F900F900F900F900F90DF91CF91F2
:1002C0001F910895813019F0823029F148C06130C2
:1002D00071F018F06230A9F044C040E064E083E0BF
:1002E00070DF40E068E083E06CDF80E0089540E08C
:1002F00064E083E066DF4FEF68E083E062DF80E088
:1003000008954FEF64E083E05CDF40E068E083E065
:1003100058DF80E00895613071F018F06230A9F084
:1003200022C040E060E483E04CDF40E060E883E02E
:1003300048DF80E0089540E060E483E042DF4FEF73
:1003400060E883E03EDF80E008954FEF60E483E003
:1003500038DF40E060E883E034DF80E0089581E04A
:10036000089581E0089581E00895813019F0823088
:1003700049F010C02EE330E040E050E082E01FD2B0
:1003800080E008952EE330E040E050E081E017D2B5
:1003900080E0089581E00895813019F0823079F08D
:1003A0001CC040E060E183E00CDF40E068E083E0F7
:1003B00008DF40E064E083E004DF80E0089540E08F
:1003C00060E283E0FEDE40E060E483E0FADE40E0ED
:1003D00060E883E0F6DE80E0089581E00895CF9341
:1003E00081E03DDFC82F82E03ADF811105C081E066
:1003F000C11103C080E001C081E0CF910895CF9387
:10040000C62F823029F128F4882349F0813099F0F1
:1004100041C0833059F1843009F432C03BC081E0DF
:10042000BBDF82E0B9DF60E082E09FDF60E081E077
:100430009CDF80E030C082E098DF6C2F81E095DFA8
:1004400061E081E03FDF61E082E03CDF80E023C0EB
:1004500062E382E08ADF62E381E087DF62E081E0DD
:1004600031DF62E082E02EDF80E015C081E094DFC2
:1004700062E382E07ADF61E082E024DF80E00BC0AB
:1004800082E08ADF62E381E070DF61E081E01ADF11
:1004900081E001C081E0CF910895FFDD08DE64E6D0
:1004A00070E080E090E071D2F9CF0F931F93CF936B
:1004B000DF9300D000D01F92CDB7DEB7009761F177
:1004C000FC012181222321F0233010F181E025C09D
:1004D0008C01BE016B5F7F4F80E009D48130D1F485
:1004E00019821A828B8387E08C83CE01019667D2B2
:1004F00081110AC0F8018081823041F4789484B778
:10050000806484BF80E009C081E007C080E005C04E
:1005100080E003C081E001C081E00F900F900F9058
:100520000F900F90DF91CF911F910F9108950F932E
:100530001F93823029F48BB780628BBF80E001C0AB
:1005400081E0613081F018F06230C9F024C0009180
:100550007C0010917D0020E030E0FA0100831183DF
:100560002283338319C0009180001091810020E024
:1005700030E0FA0100831183228333830DC00091A0
:100580007E0010917F0020E030E0FA0100831183AB
:100590002283338301C081E01F910F9108951F9240
:1005A0000F920FB60F9211242F933F934F935F93A7
:1005B0006F937F938F939F93AF93BF93EF93FF932B
:1005C0008091820081110DC060E070E052D294B73A
:1005D00080E4892784BF809182008F5F80938200AE
:1005E0000FC080E05BD382B790E09093810080934E
:1005F000800012BE1092820094B780E4892784BFE5
:10060000FF91EF91BF91AF919F918F917F916F91EA
:100610005F914F913F912F910F900FBE0F901F90C0
:1006200018950F931F93CF93DF9300D01F92CDB7F0
:10063000DEB7009709F4B9C08C01DC018C918130E0
:1006400089F138F0823009F459C0833009F482C04E
:10065000AAC083B7806483BF83B7877F83BF83B714
:10066000806283BF83B78F7E83BF81E089838FEFF2
:100670008B8388E08A83CE01019642DD91E081116F
:1006800001C090E0F801208130E0F901E957FF4F07
:10069000D80111968C918083F901ED57FF4F81E0CD
:1006A000808384C08FB58C7F8FBD8EB580618EBDF9
:1006B0008EB5877F8EBD8FB580688FBD8FB58F7BE0
:1006C0008FBD83E089838FEF8B8380E28A83CE01A5
:1006D000019616DD91E0811101C090E0F8012081C2
:1006E00030E0F901E957FF4FD80111968C918083D2
:1006F000F901ED57FF4F81E0808358C08FB58C7FA3
:100700008FBD8EB580618EBD8EB5877F8EBD8FB556
:1007100080628FBD8FB58F7E8FBD83E089838FEF21
:100720008B8380E18A83CE010196EADC91E081111E
:1007300001C090E0F801208130E0F901E957FF4F56
:10074000D80111968C918083F901ED57FF4F81E01C
:1007500080832CC085B5806485BD85B5877F85BDC8
:1007600085B5806285BD85B58F7E85BD83E0898333
:100770008FEF8B8380E88A83CE010196C1DC91E004
:10078000811101C090E0F801208130E0F901E957C2
:10079000FF4FD80111968C918083F901ED57FF4FDF
:1007A00081E0808303C091E001C091E0892F0F9028
:1007B0000F900F90DF91CF911F910F910895CF92DD
:1007C000DF92EF92FF920F931F93CF93C62F690191
:1007D0007A01813009F43FC038F0823009F476C0E4
:1007E000833009F4A9C0BFC080918300813009F033
:1007F000BCC0E0918700F0E0EE0FFF1FE259FF4F11
:10080000408151818EEF91E0489F9001499F300DCA
:10081000589F300D112440E050E060E074E284EF16
:1008200090E03BD311E02C153D054E055F0509F422
:1008300010E02FEFC29FC001112464E670E01AD3CC
:100840006CBF93B7E0918700F0E0E959FF4F8081DA
:10085000892B83BF91C080918400813009F087C0CB
:100860008FB580688FBD8FB58F7B8FBD07E810E097
:10087000D8011196EC91F0E0EE0FFF1FE259FF4F07
:10088000A081B181AA0FBB1F3FD39B01AC0160E0E7
:1008900074E284EF90E001D337BD26BDA6B5B7B5AD
:1008A0002C2F30E022D324E630E040E050E0F5D2B7
:1008B0003BBD2ABD9EB5D8011196EC91F0E0E959F7
:1008C000FF4F8081892B8EBD10E056C0809185003E
:1008D000813009F04EC08FB580628FBD8FB58F7E9D
:1008E0008FBD0091890010E0F801EE0FFF1FE25963
:1008F000FF4FA081B181AA0FBB1F06D39B01AC01A2
:1009000060E074E284EF90E0C8D237BD26BDA6B5A2
:10091000B7B52C2F30E0E9D224E630E040E050E0DB
:10092000BCD239BD28BD9EB5F801E959FF4F808181
:10093000892B8EBD10E020C0809186008130D9F4D3
:10094000BFEF6B9FC001112464E670E093D263BDDA
:1009500095B5E0918A00F0E0E05AFF4F8081892B45
:1009600085BD10E009C011E007C011E005C011E02D
:1009700003C011E001C011E0812FCF911F910F91B1
:10098000FF90EF90DF90CF900895AB01BC0141152F
:1009900051056105710571F408950197F1F72F5F15
:1009A0003F4FC901A0E0B0E084179507A607B7073D
:1009B00018F0089520E030E088EE93E0EECFFC01DF
:1009C000892B09F454C03081832F90E0DC01A257B9
:1009D000BF4F23812C9321812130B1F118F02230B7
:1009E000C9F13DC0313081F018F03230E1F026C05D
:1009F00083B7877B83BF8281813019F489B789BF30
:100A00001DC089B789BF1AC08FB58C7F8FBD8EB5C9
:100A1000877E8EBD8281811103C089B789BF0EC0D8
:100A200089B789BF0BC085B5877B85BD8281811160
:100A300003C089B789BF02C089B789BFA081B0E070
:100A4000AF56BF4F1C920BC0DC01AF56BF4F21E029
:100A50002C9305C0DC01AF56BF4F22E02C93E08100
:100A6000F0E0E557FF4F81E0808380E0089581E06A
:100A70000895813009F457C020F0823009F4A8C0ED
:100A8000F9C080918B00813009F0F6C062BF80917F
:100A900091008130D9F118F08230E9F1EFC08091F6
:100AA0008E008430D9F028F4813041F0823071F02A
:100AB000E7C08630D9F0873009F1E2C083B7897F7B
:100AC00083BF83B7816083BF80E0089583B78A7F47
:100AD00083BF83B7826083BF80E0089583B78B7F35
:100AE00083BF83B7836083BF80E0089583B78C7F23
:100AF00083BF83B7846083BF80E0089583B78D7F11
:100B000083BF83B7856083BF80E0089583B7876024
:100B100083BF80E0089583B7866083BF83B78E7FED
:100B200083BF80E0089580918C00813009F0AAC0D5
:100B3000609570957DBD6CBD809192008130D9F13A
:100B400018F08230E9F1A0C080918F008430D9F094
:100B500028F4813041F0823071F098C08630D9F0AD
:100B6000873009F193C08EB5897F8EBD8EB58160C7
:100B70008EBD80E008958EB58A7F8EBD8EB5826071
:100B80008EBD80E008958EB58B7F8EBD8EB583605F
:100B90008EBD80E008958EB58C7F8EBD8EB584604D
:100BA0008EBD80E008958EB58D7F8EBD8EB585603B
:100BB0008EBD80E008958EB587608EBD80E008957B
:100BC0008EB586608EBD8EB58E7F8EBD80E0089519
:100BD00080918D00813009F05BC0609564BD80918B
:100BE0009300882329F0833008F454C081E00895ED
:100BF000E09190008E2F90E0FC013197E730F105F5
:100C000008F04AC0E65DFF4F6AC185B5897F85BDA2
:100C100085B5816085BD80E0089585B58A7F85BDF5
:100C200085B5826085BD80E0089585B58B7F85BDE3
:100C300085B5836085BD80E0089585B58C7F85BDD1
:100C400085B5846085BD80E0089585B58D7F85BDBF
:100C500085B5856085BD80E0089585B58E7F85BDAD
:100C600085B5866085BD80E0089585B5876085BDC2
:100C700080E0089581E0089581E0089581E008957D
:100C800081E0089581E0089581E0089581E008956C
:100C900081E0089580E0089581E00895813069F051
:100CA00018F0823099F01BC080918B008130C9F41C
:100CB00083B7887F83BF80E0089580918C00813066
:100CC00091F48EB5887F8EBD80E0089580918D006F
:100CD000813059F485B5887F85BD80E0089581E035
:100CE000089581E0089581E0089581E00895E82F56
:100CF000F0E0E557FF4F90819130E9F4FB019083DC
:100D0000813059F018F0823079F017C008B600FE33
:100D100016C0FB01108280E0089508B602FE11C0E3
:100D2000FB01108280E0089508B606FE0CC0FB01AE
:100D3000108280E0089581E0089581E0089580E0C8
:100D4000089580E0089580E008951F920F920FB6F5
:100D50000F9211248F939F93AF93BF938091940030
:100D600090919500A0919600B09197000196A11DD9
:100D7000B11D8093940090939500A0939600B0933A
:100D80009700BF91AF919F918F910F900FBE0F90E1
:100D90001F901895CF93DF9300D000D01F92CDB74E
:100DA000DEB781E0898388E08A838FEF8B83CE0171
:100DB0000196A6D984E08A831B82CE010196A0D930
:100DC00082E08C831D82CE0104966FDB91E081115D
:100DD00001C090E0892F0F900F900F900F900F900F
:100DE000DF91CF910895CF93DF934FEF68E081E0DB
:100DF000E8D9D82F61E070E080E090E0C6DD40E007
:100E000068E081E0DED9813029F0C1E0D13019F00D
:100E1000C0E001C0C1E061E070E080E090E0B5DDDD
:100E20008C2FDF91CF9108950F931F93CF93DF9372
:100E300000D000D0CDB7DEB78C0119821A821B8298
:100E40001C82AE014F5F5F4F61E082E070DB298161
:100E50003A81F8013183208391E0813009F090E0FC
:100E6000892F0F900F900F900F90DF91CF911F91CE
:100E70000F91089597FB072E16F4009406D077FD86
:100E800008D04CD007FC05D03EF4909581959F4F3B
:100E90000895709561957F4F0895A1E21A2EAA1BBF
:100EA000BB1BFD010DC0AA1FBB1FEE1FFF1FA2171A
:100EB000B307E407F50720F0A21BB30BE40BF50B17
:100EC000661F771F881F991F1A9469F760957095A0
:100ED000809590959B01AC01BD01CF010895EE0F67
:100EE000FF1F0590F491E02D0994A29FB001B39FDC
:100EF000C001A39F700D811D1124911DB29F700D23
:100F0000811D1124911D0895F0DFA59F900DB49FC0
:100F1000900DA49F800D911D11240895AA1BBB1B49
:100F200051E107C0AA1FBB1FA617B70710F0A61BE9
:100F3000B70B881F991F5A95A9F780959095BC010A
:080F4000CD010895F894FFCFE4
:100F4800010203040506070102000300040501006D
:0C0F5800080020004000800000010004A0
:00000001FF
