S01B000073657269616C636F6D6D756E69636174696F6E2E7372656313
S113000029C000002FC000002DC000002BC000003C
S113001029C0000027C0000025C0000023C0000044
S113002021C000001FC000001DC000001BC0000054
S113003019C0000017C0000015C0000013C0000064
S113004011C000000FC000000DC000000BC0000074
S113005009C0000011241FBECFE5D8E0DEBFCDBF2C
S113006080D03CC1CDCF813089F028F08230C9F0F6
S1130070833011F12CC04F3F21F48AB3682B6ABB43
S113008008958AB3609568236ABB08954F3F21F4AD
S113009087B3682B67BB089587B36095682367BBF4
S11300A008954F3F21F484B3682B64BB089584B34F
S11300B06095682364BB08954F3F21F481B3682B96
S11300C061BB089581B36095682361BB08954F3F78
S11300D021F48AB3682B6ABB08958AB360956823B8
S11300E06ABB0895813089F028F08230C9F08330EA
S11300F011F12CC04F3F21F48BB3682B6BBB0895D7
S11301008BB3609568236BBB08954F3F21F488B38C
S1130110682B68BB089588B36095682368BB08950D
S11301204F3F21F485B3682B65BB089585B3609573
S1130130682365BB08954F3F21F482B3682B62BBEB
S1130140089582B36095682362BB08954F3F21F4FC
S11301508BB3682B6BBB08958BB3609568236BBB23
S11301600895CF93DF93CDB7DEB728970FB6F894F1
S1130170DEBF0FBECDBF80E189831E8281E08A830A
S11301801C8280E48B831D8280E28F831886CE01DB
S1130190019627D060ED77E080E090E008D084E11C
S11301A090D068EE73E080E090E001D0F8CFAB012E
S11301B0BC01411551056105710571F4089501975C
S11301C0F1F72F5F3F4FC901A0E0B0E08417950716
S11301D0A607B70718F0089520E030E088EE93E012
S11301E0EECFCF93DF93EC016E9A8E81803211F4BF
S11301F06D9A04C0811102C08DB18DB9888180319E
S113020071F56C9A8981813049F028F0823041F08F
S1130210833041F00AC08DB18DB907C0689A05C01A
S1130220699A03C08DB183608DB98B81813011F4DB
S1130230709A04C0811102C08EB18EB940E060E4AE
S113024081E011DF4FEF60E281E00DDF4FEF60E806
S113025081E009DF4FEF60E181E005DF14C0811127
S113026012C08DB18DB94FEF60E481E0FCDE40E057
S113027060E281E0F8DE40E060E881E0F4DE40E046
S113028060E181E0F0DE8C81811103C08DB18DB914
S113029003C0883009F46B9A8A81803411F46E9A11
S11302A004C0811102C08DB18DB98F81811103C049
S11302B08DB18DB903C0843009F46A9ADF91CF916E
S11302C00895CF93C82F4FEF60E181E00BDFCFB9E2
S11302D0779BFECF779A8FB1CF910895F894FFCF93
S9030000FC
